:020000040800F2
:1000000000500020C9270008491000084B100008C4
:100010004D1000084F1000085110000800000000AB
:100020000000000000000000000000005310000865
:100030005510000800000000571000085910000873
:1000400011280008112800081128000811280008AC
:10005000112800081128000811280008112800089C
:10006000112800081128000811280008112800088C
:10007000112800081128000811280008112800087C
:10008000112800081128000811280008112800086C
:100090007D10000811280008112800081128000808
:1000A000112800088D100008112800089D10000874
:1000B000112800081128000811280008112800083C
:1000C000112800081128000811280008112800082C
:1000D000112800081128000811280008112800081C
:1000E000112800081128000811280008000000004D
:1000F0000000000000000000000000000000000000
:0C01000000000000000000005FF808F1A3
:10010C0080F0004002E000BF81F0004142001FBFC0
:10011C005FEA410392EA030F7FEA226C7FEA236CC9
:10012C006AD04FEA1262D2EB1363C1BFD2184140BE
:10013C0048404140B8BF5B42192B88BF704710F054
:10014C00004F40F4000020F07F4018BF404211F0F7
:10015C00004F41F4000121F07F4118BF494292EA5F
:10016C00030F3FD0A2F1010241FA03FC10EB0C008B
:10017C00C3F1200301FA03F100F0004302D5494218
:10018C0060EB4000B0F5000F13D3B0F1807F06D3C5
:10019C0040084FEA310102F10102FE2A51D2B1F1BD
:1001AC00004F40EBC25008BF20F0010040EA0300B2
:1001BC007047490040EB0000013A28BFB0F5000F32
:1001CC00EDD2B0FA80FCACF1080CB2EB0C0200FAE8
:1001DC000CF0AABF00EBC25052421843BCBFD04037
:1001EC001843704792F0000F81F4000106BF80F4B1
:1001FC0000000132013BB5E74FEA41037FEA226C74
:10020C0018BF7FEA236C21D092EA030F04D092F03E
:10021C00000F08BF0846704790EA010F1CBF002072
:10022C00704712F07F4F04D1400028BF40F00040CF
:10023C00704712F100723CBF00F50000704700F0EF
:10024C00004343F0FE4040F4000070477FEA226216
:10025C0016BF08467FEA23630146420206BF5FEAE7
:10026C00412390EA010F40F4800070474FF00003E7
:10027C0004E000BF10F0004348BF40425FEA000CAE
:10028C0008BF704743F0964301464FF000001CE056
:10029C0050EA010208BF70474FF000030AE000BFAC
:1002AC0050EA010208BF704711F0004302D54042EA
:1002BC0061EB41015FEA010C02BF8446014600205C
:1002CC0043F0B64308BFA3F18053A3F50003BCFA77
:1002DC008CF2083AA3EBC25310DB01FA02FC634424
:1002EC0000FA02FCC2F12002BCF1004F20FA02F22B
:1002FC0043EB020008BF20F00100704702F120021E
:10030C0001FA02FCC2F1200250EA4C0021FA02F27E
:10031C0043EB020008BF20EADC7070474FF0FF0C83
:10032C001CEAD0521EBF1CEAD15392EA0C0F93EA7E
:10033C000C0F6FD01A4480EA010C400218BF5FEA20
:10034C0041211ED04FF0006343EA501043EA511193
:10035C00A0FB01310CF00040B1F5000F3EBF49008D
:10036C0041EAD3715B0040EA010062F17F02FD2A91
:10037C001DD8B3F1004F40EBC25008BF20F0010074
:10038C00704790F0000F0CF0004C08BF49024CEA8B
:10039C00502040EA51207F3AC2BFD2F1FF0340EA1D
:1003AC00C250704740F400004FF00003013A5DDC8E
:1003BC0012F1190FDCBF00F000407047C2F10002CF
:1003CC00410021FA02F1C2F1200200FA02FC5FEABC
:1003DC00310040F1000053EA4C0308BF20EADC7006
:1003EC00704792F0000F00F0004C02BF400010F478
:1003FC00000F013AF9D040EA0C0093F0000F01F025
:10040C00004C02BF490011F4000F013BF9D041EA46
:10041C000C018FE70CEAD15392EA0C0F18BF93EA48
:10042C000C0F0AD030F0004C18BF31F0004CD8D172
:10043C0080EA010000F00040704790F0000F17BFF9
:10044C0090F0004F084691F0000F91F0004F14D03F
:10045C0092EA0C0F01D142020FD193EA0C0F03D197
:10046C004B0218BF084608D180EA010000F000409A
:10047C0040F0FE4040F40000704740F0FE4040F475
:10048C00400070474FF0FF0C1CEAD0521EBF1CEA14
:10049C00D15392EA0C0F93EA0C0F69D0A2EB030232
:1004AC0080EA010C49024FEA402037D04FF08053CC
:1004BC0043EA111143EA10130CF000408B4238BF91
:1004CC005B0042F17D024FF4000C8B4224BF5B1A9F
:1004DC0040EA0C00B3EB510F24BFA3EB510340EAED
:1004EC005C00B3EB910F24BFA3EB910340EA9C009B
:1004FC00B3EBD10F24BFA3EBD10340EADC001B010B
:10050C0018BF5FEA1C1CE0D1FD2A3FF650AF8B42AE
:10051C0040EBC25008BF20F0010070470CF0004CBB
:10052C004CEA50207F32C2BFD2F1FF0340EAC250E6
:10053C00704740F400004FF00003013A37E792F0A7
:10054C00000F00F0004C02BF400010F4000F013A05
:10055C00F9D040EA0C0093F0000F01F0004C02BF00
:10056C00490011F4000F013BF9D041EA0C0195E769
:10057C000CEAD15392EA0C0F08D142027FF47DAF02
:10058C0093EA0C0F7FF470AF084676E793EA0C0FF2
:10059C0004D14B023FF44CAF08466EE730F0004CF0
:1005AC0018BF31F0004CCAD130F000427FF45CAF80
:1005BC0031F000437FF43CAF5FE700BF42000ED246
:1005CC00B2F1FE4F0BD34FF09E03B3EB126209D482
:1005DC004FEA002343F0004323FA02F070474FF038
:1005EC000000704712F1610F01D1420202D14FF0AD
:1005FC00FF3070474FF00000704700BF7BB972B9F5
:10060C000029BEBF00204FF0004106E008BF0028C3
:10061C001CBF6FF000414FF0FF3000F03FB8ADF160
:10062C00080C6DE904CE002909DB002B1ADB02F063
:10063C0017F9DDF804E0DDE9022304B0704740420D
:10064C0061EB4101002B1BDB02F00AF9DDF804E041
:10065C00DDE9022304B0404261EB4101524263EBFD
:10066C0043037047524263EB430302F0F9F8DDF8A1
:10067C0004E0DDE9022304B0404261EB4101704724
:10068C00524263EB430302F0EBF8DDF804E0DDE9E2
:10069C00022304B0524263EB43037047704700BF20
:1006AC0010B5054C237833B9044B13B10448AFF3A0
:1006BC0000800123237010BD6C000020000000009E
:1006CC00382B000808B5034B1BB103490348AFF3A3
:1006DC00008008BD0000000070000020382B0008CE
:1006EC00042304E0013B00BF00BF00BF00BF002B90
:1006FC00F8D1704710B5044602E0012000F01EFD51
:10070C00237D002BF9D10123237510BD0023037524
:10071C00704770B5044600F00BFD054661896068B2
:10072C0001F0ACF8012809D1012000F007FD00F020
:10073C00FFFC401B9628F1D900202EE000252E4608
:10074C0001E001356DB2172D16DC012221892068DC
:10075C0001F09BF8FFF7C4FF00222189206801F00B
:10076C0094F8FFF7BDFF76006189606801F086F8A8
:10077C000128E6D10136E4E786F40006012221893E
:10078C00206801F082F8FFF7ABFF00222189206876
:10079C0001F07BF8FFF7A4FF304670BD2DE9F04F58
:1007AC0085B004460F4690461E46BDF838A0FFF7AC
:1007BC00A1FF2760A4F808806660A4F80AA00025B1
:1007CC0000950195029503954FF00109CDF8049021
:1007DC004FF0030BCDF80CB0CDF8008069463846CD
:1007EC0000F03AFF0195CDF80890CDF80CB0CDF89B
:1007FC0000A06946304600F02FFF4A462189206848
:10080C0001F043F80A2000F099FC2A46218920685F
:10081C0001F03BF80A2000F091FC2046FFF779FF2D
:10082C002046FFF776FF2046FFF770FF05B0BDE8C6
:10083C00F08F2DE9F04107468846FFF75BFF002457
:10084C00254626460AE03846FFF763FF451946EB76
:10085C00E076052000F072FC0134A4B24445F2D3DA
:10086C004246002328463146FFF7C8FEF86038465A
:10087C00FFF74CFFBDE8F08138B50446FFF73AFFAF
:10088C002046FFF746FFE368C01AFFF7F3FC216927
:10089C00FFF7F8FD05462046FFF738FF284638BD20
:1008AC00016170472DE9F04389B00024049405944C
:1008BC0006940794334B9A6942F010029A619A6934
:1008CC0002F010020092009A9A6942F020029A619A
:1008DC009A6902F020020192019A9A6942F004028C
:1008EC009A619A6902F004020292029A9A6942F0A1
:1008FC0008029A619B6903F008030393039BDFF8DA
:10090C00889022464FF46041484600F0BEFF1F4FCE
:10091C00224640F22A41384600F0B7FFDFF87080DB
:10092C00224640F6F741404600F0AFFF4FF46043DB
:10093C0004930126059606940225079504A94846BA
:10094C0000F08AFE40F22A4304930596069407951C
:10095C0004A9384600F080FE1023049305940694F5
:10096C000DEB0301384600F077FE40F6F743049395
:10097C0005960694079504A9404600F06DFE09B053
:10098C00BDE8F08300100240001001400008014057
:10099C00000C014072B6FEE708B50C480C4B036026
:1009AC000923436000238360C3604FF4A0220261DB
:1009BC004361037643768376C3760377437700F0FF
:1009CC00DFFB00B908BDFFF7E5FF00BF8800002082
:1009DC000064004010B596B0002412941394149443
:1009EC0015941094119409940A940B940C940D94EE
:1009FC000E940F942022214601A801F004FF2B48ED
:100A0C002B4B03604823436084604FF6FF73C36035
:100A1C00046144618023836101F000FC002839D11A
:100A2C004FF48053129312A9204801F0F5FC0028D2
:100A3C0032D11E4801F01EFC00282FD10023109348
:100A4C00119310A9194801F057FE48BB6023099374
:100A5C000A230A9300230B930C930D930E930F937D
:100A6C00042209A9114801F063FCD8B900230193B1
:100A7C0002930393049305934FF400520692089348
:100A8C0001A90A4801F06EFE70B9084800F0AEFAF0
:100A9C0016B010BDFFF77EFFFFF77CFFFFF77AFF64
:100AAC00FFF778FFFFF776FFFFF774FFEC000020ED
:100ABC00002C014000B591B02822002106A801F0BD
:100ACC00A2FE002301930293039304930593012246
:100ADC0006924FF4803307930A9202220D920E93E2
:100AEC004FF4E0130F9306A800F0F4FE80B90F2327
:100AFC00019302210291002303934FF4806204922C
:100B0C00059301A801F026F920B911B05DF804FB9A
:100B1C00FFF740FFFFF73EFF10B582B000F0EAFA96
:100B2C00FFF7C8FFFFF7BEFEFFF736FFFFF752FFD8
:100B3C002449254C102300930B4608222046FFF72E
:100B4C002DFE22492046FFF7ABFE0A212046FFF777
:100B5C0070FE1F4B01221A701E4800F061F900F064
:100B6C00A9F90028FBD100F09BF902E000F0A2F9F2
:100B7C0018B3144C0221204600F08DFE2021204693
:100B8C0000F089FE1048FFF777FEFFF717FD124BB8
:100B9C00186000F0CDFA114BA3FB00235B0A4FF455
:100BAC00FA5202FB1303B3F57A6FDFD200F082F92D
:100BBC000028DED100F034F9DBE742F6E06000F00B
:100BCC002FF9D6E7000801403401002000007A44D8
:100BDC004C010020E0B1FFFF6C010020D34D6210EE
:100BEC0000B5134BA3FB0012D208964602EB82020F
:100BFC00A0EB42020F490A70A3FB0E02D2089446E6
:100C0C0002EB8202AEEB42024A70A3FB0C02D2084A
:100C1C00104602EB8202ACEB42028A70A3FB00236B
:100C2C00DB0803EB8303A0EB4303CB705DF804FB01
:100C3C00CDCCCCCC5001002038B5204C2378204DA5
:100C4C0005EBC3010122898855F8330000F01DFE25
:100C5C00237801335A4203F0030302F0030258BF16
:100C6C005342DBB2237005EBC3010022898855F88F
:100C7C00330000F00AFE2378124AD25C12498D5CD4
:100C8C00022B01D000240DE045F00105FAE701220A
:100C9C000E4B03EBC001898853F8300000F0F5FDD2
:100CAC000134E4B2072C07D8204645FA04F313F0BC
:100CBC00010FECD10022EBE738BD00BF4D01002045
:100CCC000000002050010020502B000820000020C4
:100CDC0008B50421034801F0ABFC034B00221A7049
:100CEC0008BD00BFEC0000205C010020054B18681B
:100CFC00054A11684FF6FF73B3FBF0F3CB62D36078
:100D0C00704700BF68010020EC00002010B5114BAB
:100D1C0032221A60104B1B78A3B901224FF4806168
:100D2C000E4800F0B2FDFFF7E1FF0D4C23680022E6
:100D3C005A6200F0FDF90B4B18600421204601F0BB
:100D4C00E7FB10BD00224FF48061044800F09DFDCC
:100D5C00E9E700BF680100205401002000080140B1
:100D6C00EC0000205801002010B500F0E1F9044619
:100D7C00254B1B78002B34D1244B1A6801321A6096
:100D8C001A68234B1B689A4228DA204A12689B1A6D
:100D9C00204A1268A21A02EB82021F49086800EB73
:100DAC0042020A600A68B2F57A7F03D90A464FF408
:100DBC007A71116023F07F43174A12689A4201D965
:100DCC00154A1360144B1B68312B02D8124B32227C
:100DDC001A60FFF78BFF0F4B1C6010BDFFF778FFFD
:100DEC00FBE70A4B1A68013A1A601B68084A12683A
:100DFC00934203DD054B1B689B1AC9E7FFF768FF9D
:100E0C00064B00221A70E8E7540100206401002010
:100E1C006001002058010020680100205C010020C6
:100E2C0008B51B4A1278C2B100231A4A12681A4933
:100E3C0009688A4205DC184909688A4202DA0123EA
:100E4C0000E00023134A1060144A12789A4212D020
:100E5C00124A1370FFF75AFF0DE00D4B01221A7066
:100E6C000C4B18600C4B1B68834205DA0B4B0022B1
:100E7C001A70FFF74BFF08BD074B1B68834203DD5D
:100E8C00064B01221A70F4E7FFF722FFF3E700BFCD
:100E9C005C0100206001002064010020540100204E
:100EAC0008B5FFF715FF024B00221A6008BD00BF02
:100EBC0064010020014B1878704700BF5C010020D2
:100ECC0082B00E4B9A6942F001029A619A6902F063
:100EDC0001020092009ADA6942F08052DA61DB6911
:100EEC0003F080530193019B054A536823F0E063A0
:100EFC0043F00073536002B0704700BF0010024013
:100F0C000000014010B586B00023029303930493B4
:100F1C00059302681E4B9A4201D006B010BD03F532
:100F2C00D633DA6942F00072DA61DA6902F00072E3
:100F3C000092009A9A6942F008029A619B6903F048
:100F4C0008030193019B4FF480730293114C02A987
:100F5C00204600F081FB4FF40073029302230393AD
:100F6C000323059302A9204600F076FB0A4A536836
:100F7C0023F4C04343F0E06343F480435360002206
:100F8C001146142000F00EFB142000F043FBC4E7C4
:100F9C0000640040000C0140000001400268124B4C
:100FAC009A4200D0704700B583B003F564439A6948
:100FBC0042F400629A619B6903F400630193019B04
:100FCC0000221146192000F0EDFA192000F022FB46
:100FDC00002211461B2000F0E5FA1B2000F01AFB42
:100FEC0003B05DF804FB00BF002C014000B587B0D6
:100FFC000023029303930493059302680D4B9A42CA
:10100C0002D007B05DF804FB03F564439A6942F023
:10101C0004029A619B6903F004030193019B4FF452
:10102C000073029302230393059302A9024800F074
:10103C0013FBE6E7002C014000080140FEE7FEE749
:10104C00FEE7FEE7FEE770477047704708B5064BB2
:10105C001868064BA3FB0030C008FFF7C1FDFFF773
:10106C00EBFD00F059F808BD6C010020CDCCCCCCC8
:10107C0008B5024800F066F908BD00BF88000020E2
:10108C0008B5024800F0D3FF08BD00BFEC000020FB
:10109C0008B5FFF769FE024800F0C9FF08BD00BFA4
:1010AC00EC0000207047000010B504460E4B1A7877
:1010BC004FF47A73B3FBF2F30C4A1068B0FBF3F005
:1010CC0000F0B6FA68B90F2C01D901200AE0002211
:1010DC0021464FF0FF3000F065FA054B1C600020F4
:1010EC0000E0012010BD00BF640000206000002063
:1010FC006800002008B5074A136843F0100313601A
:10110C00032000F03DFA0F20FFF7CEFFFFF7D8FECB
:10111C00002008BD00200240034A1168034B1B78D5
:10112C000B441360704700BF700100206400002066
:10113C00014B1868704700BF7001002038B5044699
:10114C00FFF7F6FF0546B4F1FF3F02D0044B1B78C6
:10115C001C44FFF7EDFF401BA042FAD338BD00BF83
:10116C0064000020704770477047704770477047A5
:10117C007047704770477047704770477047000062
:10118C00002800F0C08038B5044690F82030F3B940
:10119C005E4B03645E4B43645E4B83645E4BC36483
:1011AC005E4B83625E4BC3625E4B03635E4B436379
:1011BC005E4B83635E4BC3635E4B03655E4B436563
:1011CC005E4B8365C36DEBB1E36D20469847226897
:1011DC00136823F002031360FFF7AAFF0546236888
:1011EC005A6812F0020F10D0FFF7A2FF401B0A281A
:1011FC00F5D9636A43F400336362052384F8203025
:10120C00012038BD4E4BC365DEE71A6842F001027F
:10121C001A60FFF78DFF054623685A6812F0010F1C
:10122C000DD1FFF785FF401B0A28F5D9636A43F4FB
:10123C0000336362052384F820300120E1E7227E2D
:10124C00012A3DD01A6822F080021A60637E012BBD
:10125C003BD02268136823F040031360A37E012B5C
:10126C0039D02268136823F020031360E37E012B2E
:10127C0037D02268136843F010031360237F012BCF
:10128C0035D02268136823F008031360637F012BA9
:10129C0033D02268136823F004031360A368E26858
:1012AC00134322691343626913436268013A21684C
:1012BC001343CB6100206062012384F82030A0E747
:1012CC001A6842F080021A60C0E72268136843F083
:1012DC0040031360C2E72268136843F020031360D5
:1012EC00C4E72268136823F010031360C6E7226872
:1012FC00136843F008031360C8E72268136843F0CF
:10130C0004031360CAE70120704700BF7D11000879
:10131C007F11000881110008831100087111000869
:10132C007311000875110008771100087911000875
:10133C007B1100088511000887110008891100082D
:10134C00110F00082DE9F84F044603685D69D3F8C6
:10135C0004809F68D3F80CB0D3F810A0D3F8189081
:10136C0015F0010627D017F0010608D001229A606B
:10137C0017F0020F00F0AC80836A9847002617F430
:10138C00807F0AD023684FF480729A6017F4007F34
:10139C0000F0AD80E36A2046984717F4803F0AD0EE
:1013AC0023684FF480329A6017F4003F00F0AF804E
:1013BC00236B2046984715F0080F07D01BF0100F31
:1013CC0004D046F4007623681022DA6015F0040F7E
:1013DC0008D01BF0080F05D023680822DA60636C74
:1013EC002046984715F0020F07D02368DB6813F0EE
:1013FC00030F02D0236C2046984715F0400F07D0FE
:10140C001AF0100F04D046F48066236810221A617B
:10141C0015F0200F08D01AF0080F05D02368082209
:10142C001A61E36C2046984715F0100F07D023681B
:10143C001B6913F0030F02D0A36C2046984715F4D8
:10144C00003F08D018F0100F05D0236810225A6006
:10145C00236D2046984715F4803F08D018F0080FEC
:10146C0005D0236808225A60636D2046984715F40E
:10147C00004F69D018F0040F63D015F4807F04D0AE
:10148C0019F0010F01D046F0010615F4007F04D0CD
:10149C0019F0020F01D046F0020615F4806F04D04B
:1014AC0019F0040F01D046F0040615F4006F48D073
:1014BC0019F0700945D0B9F1400F5AD04DD8B9F197
:1014CC00200F53D0B9F1300F31D146F0200633E064
:1014DC0017F0040F05D117F0080605D1436B984798
:1014EC004DE74FF400664AE74FF4805647E717F490
:1014FC00806F02D046F400564FE717F4006F02D00D
:10150C0046F4804649E7A36B2046984745E717F415
:10151C00802F02D046F400464DE717F4002F02D07E
:10152C0046F4803647E7E36B2046984743E7B9F12A
:10153C00100F01D146F008062268936923F070035E
:10154C009361236804225A602EB1636A3343636249
:10155C00A36D20469847BDE8F88FB9F1500F0BD01A
:10156C00B9F1600FE8D146F48076E5E746F0100655
:10157C00E2E746F04006DFE746F08006DCE70000D5
:10158C00074AD36823F4E0631B041B0C000200F42D
:10159C00E060034343F0BF6343F40033D360704710
:1015AC0000ED00E000B5194BDB68C3F30223C3F177
:1015BC00070CBCF1040F28BF4FF0040C03F1040E10
:1015CC00BEF1060F18D9033B4FF0FF3E0EFA0CFC90
:1015DC0021EA0C0199400EFA03FE22EA0E020A439C
:1015EC0000280BDB1201D2B200F1604000F5614023
:1015FC0080F800235DF804FB0023E5E700F00F0002
:10160C001201D2B2024B1A54F4E700BF00ED00E015
:10161C0014ED00E0002807DB00F01F024009012355
:10162C009340024A42F82030704700BF00E100E0CE
:10163C000138B0F1807F0BD24FF0E0235861054A9E
:10164C00F02182F823100020986107221A6170475C
:10165C000120704700ED00E070B582B00024A44674
:10166C00A6E0804DAB4210D007D97F4DAB420CD0D9
:10167C0005F58035AB4208D013E0A5F58015AB42DB
:10168C0003D005F57025AB4207D18B68002B58D0E1
:10169C00012B51D04261082403E0A5F58015AB4223
:1016AC00F3D0BEF1FF0F4ED80646BEF1FF0F4CD85B
:1016BC004FEA8C0233680F25954023EA050304FAA0
:1016CC0002F2134333604B6813F0805F6ED0674BAC
:1016DC009A6942F001029A619B6903F0010301933C
:1016EC00019B4FEA9C02951C614B53F825600CF052
:1016FC000305AD000F23AB4026EA03065D4B984271
:10170C0029D003F58063984200F08E8003F5806346
:10171C00984200F08B8003F58063984219D0042323
:10172C001AE0CC68BDE7CC680434BAE7CC6808345E
:10173C00B7E7CC680C34B4E702610824B1E70024A5
:10174C00AFE70424ADE7061DAFE7ACF10802920049
:10175C00B0E7032300E00023AB4033430232444D97
:10176C0045F822304B6813F4803F61D0424A13682D
:10177C0043EA0E0313604B6813F4003F5ED03E4AFD
:10178C00536843EA0E0353604B6813F4801F5BD01D
:10179C00394A936843EA0E0393604B6813F4001FB5
:1017AC0058D0354AD36843EA0E03D3600CF1010CD0
:1017BC000B6833FA0CF253D0012202FA0CF203EA52
:1017CC00020E32EA0303F1D14B68122B3FF649AFFC
:1017DC00122B3FF666AF01A555F823F097160008BB
:1017EC002F170008391700084B170008AF16000810
:1017FC00AF160008AF160008AF160008AF160008A9
:10180C00AF160008AF160008AF160008AF16000898
:10181C00AF160008AF160008AF160008AF16000888
:10182C00331700083F170008012395E7022393E7BD
:10183C00114A136823EA0E0313609CE70E4A53689F
:10184C0023EA0E0353609FE70B4A936823EA0E03C7
:10185C009360A2E7084AD36823EA0E03D360A5E796
:10186C0002B070BD000022100000311000100240C8
:10187C000000014000080140000401408368194247
:10188C0001D001207047002070470AB101617047F8
:10189C00090401617047C36801EA030221EA0301EC
:1018AC0041EA02410161704782B0084B1B68084A4B
:1018BC00A2FB03235B0A00FB03F3019300BF019B14
:1018CC005A1E0192002BF9D102B070476000002023
:1018DC00D34D6210002800F0F18170B582B004463F
:1018EC00036813F0010F2CD0994B5B6803F00C03C9
:1018FC00042B1DD0964B5B6803F00C03082B12D005
:10190C006368B3F5803F41D0002B55D103F1804380
:10191C0003F504331A6822F480321A601A6822F430
:10192C0080221A6037E08A4B5B6813F4803FE7D063
:10193C00874B1B6813F4003F03D06368002B00F047
:10194C00BF81236813F0020F75D0814B5B6813F0D5
:10195C000C0F5FD07E4B5B6803F00C03082B54D04C
:10196C002369002B00F08A807A4B01221A60FFF762
:10197C00DFFB0546764B1B6813F0020F75D1FFF7A2
:10198C00D7FB401B0228F5D903209EE1704A13684F
:10199C0043F480331360636843B3FFF7C9FB054618
:1019AC006B4B1B6813F4003FCBD1FFF7C1FB401B03
:1019BC006428F5D9032088E1B3F5A02F09D0644B36
:1019CC001A6822F480321A601A6822F480221A6093
:1019DC00E1E703F18043A3F53C331A6842F480221B
:1019EC001A601A6842F480321A60D4E7FFF7A0FB41
:1019FC000546574B1B6813F4003FA2D0FFF798FB2A
:101A0C00401B6428F5D903205FE1514B5B6813F44C
:101A1C00803FA5D14E4B1B6813F0020F03D02369F6
:101A2C00012B40F04F814A4A136823F0F803616997
:101A3C0043EAC1031360236813F0080F33D0A36982
:101A4C00002B5CD0434B0122C3F88024FFF770FBC2
:101A5C0005463F4B5B6A13F0020F21D1FFF768FB81
:101A6C00401B0228F5D903202FE1394A136823F0D3
:101A7C00F803616943EAC1031360DCE7354B0022CC
:101A8C001A60FFF755FB0546314B1B6813F0020F2C
:101A9C00D1D0FFF74DFB401B0228F5D9032014E1F0
:101AAC000120FFF701FF236813F0040F00F096806C
:101ABC00274BDB6913F0805F34D1254BDA6942F098
:101ACC008052DA61DB6903F080530193019B01259D
:101ADC00214B1B6813F4807F26D0E368012B3DD08B
:101AEC00002B53D103F1804303F504331A6A22F01F
:101AFC0001021A621A6A22F004021A6233E0154BD0
:101B0C000022C3F88024FFF713FB0546104B5B6AD9
:101B1C0013F0020FC7D0FFF70BFB401B0228F5D9BF
:101B2C000320D2E00025D3E70B4A136843F48073FB
:101B3C001360FFF7FDFA0646074B1B6813F4807F12
:101B4C00CBD1FFF7F5FA801B6428F5D90320BCE054
:101B5C000010024000004242007000405F4A136ACD
:101B6C0043F001031362E36833B3FFF7E1FA06466F
:101B7C005A4B1B6A13F0020F2FD1FFF7D9FA801BB7
:101B8C0041F288339842F3D903209EE0052B09D00B
:101B9C00524B1A6A22F001021A621A6A22F00402EB
:101BAC001A62E0E74D4B1A6A42F004021A621A6A92
:101BBC0042F001021A62D6E7FFF7BAFA0646474B23
:101BCC001B6A13F0020F08D0FFF7B2FA801B41F228
:101BDC0088339842F3D9032077E0E5B9E369002B09
:101BEC0072D03E4A526802F00C02082A56D0022BE0
:101BFC0017D03B4B00221A66FFF79AFA0446374B74
:101C0C001B6813F0007F47D0FFF792FA001B0228E5
:101C1C00F5D9032059E0314AD36923F08053D361BD
:101C2C00DCE72F4B00221A66FFF782FA05462B4B96
:101C3C001B6813F0007F06D0FFF77AFA401B0228CE
:101C4C00F5D9032041E0236AB3F5803F1AD023492C
:101C5C004B6823F47413226A606A024313434B608B
:101C6C001F4B01221A66FFF763FA04461B4B1B68D5
:101C7C0013F0007F0ED1FFF75BFA001B0228F5D999
:101C8C00032022E0154A536823F40033A1680B4368
:101C9C005360DCE7002018E0002016E0012B16D082
:101CAC000E4B5B6803F48031226A914211D103F42C
:101CBC007013626A93420ED1002006E00120704737
:101CCC00012002E0012000E0002002B070BD0120E4
:101CDC00FBE70120F9E70120F7E700BF0010024005
:101CEC000000424286B0174B0FCB0DF1180C0CE9DB
:101CFC000F0040F20123ADF80430134B5B6803F086
:101D0C000C02082A02D0114806B07047C3F3834274
:101D1C0018326A4412F8100C13F4803F0DD00A4BA1
:101D2C005B68C3F3404318336B4413F8143C074A05
:101D3C0002FB00F0B0FBF3F0E6E7054B03FB00F011
:101D4C00E2E700BF6C2B00080010024000127A0082
:101D5C0000093D00002800F0A08070B50D46044637
:101D6C00524B1B6803F007038B420BD24F4A13688C
:101D7C0023F007030B431360136803F007038B4234
:101D8C0040F08D80236813F0020F17D013F0040F6E
:101D9C0004D0474A536843F4E0635360236813F05C
:101DAC00080F04D0424A536843F460535360404ACE
:101DBC00536823F0F003A1680B435360236813F0BE
:101DCC00010F31D06368012B20D0022B25D0384A6B
:101DDC00126812F0020F64D035494A6822F00302EF
:101DEC0013434B60FFF7A4F90646314B5B6803F0D5
:101DFC000C036268B3EB820F16D0FFF799F9801BC6
:101E0C0041F288339842F0D9032045E0284A126801
:101E1C0012F4003FE0D101203EE0254A126812F096
:101E2C00007FD9D1012037E0204B1B6803F007035A
:101E3C00AB420AD91D4A136823F007032B431360E6
:101E4C00136803F00703AB422DD1236813F0040F82
:101E5C0006D0174A536823F4E063E1680B435360E0
:101E6C00236813F0080F07D0114A536823F460530A
:101E7C00216943EAC1035360FFF734FF0C4B5B68E5
:101E8C00C3F303130B4AD35CD8400B4B18600B4BBA
:101E9C001868FFF709F9002070BD01207047012078
:101EAC00FAE70120F8E70120F6E700BF0020024026
:101EBC00001002405C2B000860000020680000202D
:101ECC0030B4036A23F001030362026A4568836934
:101EDC0023F073030C681C4322F002028B6813433B
:101EEC000D4A904209D00C4A90420DD04560846155
:101EFC004A684263036230BC704723F00803CA6827
:101F0C001A4322F00403EEE725F440754A692A438C
:101F1C008D691543EAE700BF002C014030B4036A19
:101F2C0023F480730362036A4468C26922F073026B
:101F3C000D68154323F400738A6843EA02230F4AA1
:101F4C00904209D00D4A90420ED04460C5614A6857
:101F5C00C263036230BC704723F40063CA6843EA6F
:101F6C00022323F48063EDE724F440544A6944EAE5
:101F7C0002148A6944EA0214E7E700BF002C01400E
:101F8C0030B4036A23F480530362036A4468C26961
:101F9C0022F4E6420D6842EA052223F400538D68D0
:101FAC0043EA0533074DA84206D04460C2614A6833
:101FBC000264036230BC704724F480444D6944EAE7
:101FCC008514F2E7002C014010B4036A046A24F073
:101FDC0001040462846924F0F00C4CEA021223F030
:101FEC000A030B438261036210BC704710B4036A8E
:101FFC0023F0100303628469036A24F4704C4CEAE6
:10200C00023223F0A00343EA01138261036210BC85
:10201C007047836823F070030B4343F0070383601E
:10202C00704770477047704770477047704710B5DE
:10203C00044603681A6912F0020F11D0DA6812F024
:10204C00020F0DD06FF002021A61012303770368AF
:10205C009B6913F0030F70D0FFF7E6FF0023237783
:10206C0023681A6912F0040F12D0DA6812F0040F08
:10207C000ED06FF004021A610223237723689B6948
:10208C0013F4407F5FD02046FFF7CEFF0023237769
:10209C0023681A6912F0080F12D0DA6812F0080FD0
:1020AC000ED06FF008021A61042323772368DB69D2
:1020BC0013F0030F4ED02046FFF7B6FF0023237713
:1020CC0023681A6912F0100F12D0DA6812F0100F90
:1020DC000ED06FF010021A61082323772368DB6996
:1020EC0013F4407F3DD02046FFF79EFF002323775B
:1020FC0023681A6912F0010F03D0DA6812F0010F8D
:10210C0036D123681A6912F0800F03D0DA6812F006
:10211C00800F34D123681A6912F0400F03D0DA68AB
:10212C0012F0400F32D123681A6912F0200F03D03D
:10213C00DA6812F0200F30D110BDFFF774FF204683
:10214C00FFF773FF8AE72046FFF76DFF2046FFF786
:10215C006CFF9BE72046FFF766FF2046FFF765FF05
:10216C00ACE72046FFF75FFF2046FFF75EFFBDE7B9
:10217C006FF001021A612046FFF754FFC1E76FF0C0
:10218C0080021A61204600F017FBC3E76FF0400293
:10219C001A612046FFF74AFFC5E76FF020021A616B
:1021AC00204600F008FBC7E703681B4A90420AD0A0
:1021BC00B0F1804F07D0A2F59432904203D002F5D3
:1021CC008062904203D123F070034A681343124A91
:1021DC0090420AD0B0F1804F07D0A2F594329042D1
:1021EC0003D002F58062904203D123F44073CA6895
:1021FC00134323F080034A69134303608B68C36263
:10220C000B688362044B984202D0012343617047F0
:10221C000B690363F9E700BF002C014040B310B514
:10222C00044690F83D30F3B1022384F83D3021464A
:10223C0051F8040BFFF7B8FF012384F8463084F8FB
:10224C003E3084F83F3084F8403084F8413084F8D4
:10225C00423084F8433084F8443084F8453084F8B4
:10226C003D30002010BD80F83C30FEF797FEDBE7D8
:10227C000120704740B310B5044690F83D30F3B1DF
:10228C00022384F83D30214651F8040BFFF78CFFF4
:10229C00012384F8463084F83E3084F83F3084F8CB
:1022AC00403084F8413084F8423084F8433084F86C
:1022BC00443084F8453084F83D30002010BD80F85F
:1022CC003C30FFF7AEFEDBE70120704730B4036A09
:1022DC0023F010030362036A4468826922F4E64225
:1022EC000D6842EA052223F020038D6843EA0513AA
:1022FC000E4DA84209D00D4DA8420ED0446082610B
:10230C004A688263036230BC704723F08003CD6857
:10231C0043EA051323F04003EDE724F440644D69D0
:10232C0044EA85048D6944EA8504E7E7002C014002
:10233C0038B590F83C30012B60D004460D46012393
:10234C0080F83C300C2A1AD8DFE802F0071919196A
:10235C001D1919193119191944000068FFF7B0FD3E
:10236C002268936943F0080393612268936923F010
:10237C00040393612268936929690B4393610020DC
:10238C0084F83C0038BD0068FFF7A0FF2268936911
:10239C0043F4006393612268936923F4806393612F
:1023AC0022689369296943EA01239361E7E700688E
:1023BC00FFF7B4FD2268D36943F00803D3612268A8
:1023CC00D36923F00403D3612268D36929690B43D1
:1023DC00D361D4E70068FFF7D3FD2268D36943F4D7
:1023EC000063D3612268D36923F48063D3612268CC
:1023FC00D369296943EA0123D361C0E70220C1E70D
:10240C0010B4846824F47F4C42EA03220A4342EA63
:10241C000C02826010BC704790F83C30012B66D0E7
:10242C0010B50446012380F83C30022380F83D307F
:10243C000268936823F47F4323F0770393600B685F
:10244C00602B40D022D8402B47D00BD9502B0ED12B
:10245C00CA6849680068FFF7B7FD50212068FFF78C
:10246C00D8FD04E0202B0CD008D9302B09D0012347
:10247C0084F83D30002084F83C0010BD0BB1102BCB
:10248C00F5D119462068FFF7C4FDF0E7702B0ED08C
:10249C00B3F5005FEBD1CB684A6889680068FFF739
:1024AC00AFFF2268936843F480439360DFE7CB6807
:1024BC004A6889680068FFF7A3FF2268936843F0B5
:1024CC0077039360D3E7CA6849680068FFF78EFD0D
:1024DC0060212068FFF79DFDC9E7CA68496800685C
:1024EC00FFF772FD40212068FFF793FDBFE7022044
:1024FC00704701F01F014FF0010C0CFA01FC036A4C
:10250C0023EA0C030362036A8A4013430362704795
:10251C0010B504460846B1B994F83E30DBB2013B25
:10252C0018BF0123002B7CD130BB022384F83E3032
:10253C000C2836D8DFE800F03035353553353535D5
:10254C00593535355F00042908D008290DD094F889
:10255C004130DBB2013B18BF0123E3E794F83F3075
:10256C00DBB2013B18BF0123DCE794F84030DBB24F
:10257C00013B18BF0123D5E7042805D0082807D054
:10258C00022384F84130D3E7022384F83F30CFE7AD
:10259C00022384F84030CBE72268D36843F002036F
:1025AC00D360012201462068FFF7A3FF23681F4A6E
:1025BC00934226D023681D4A934227D0B3F1804F13
:1025CC0024D0A2F59432934220D002F5806293423B
:1025DC001CD01A6842F001021A60002022E0226826
:1025EC00D36843F00403D360DBE72268D36843F07D
:1025FC000803D360D5E72268D36843F01003D36097
:10260C00CFE75A6C42F400425A64D3E79A6802F05E
:10261C000702062A07D01A6842F001021A6000204D
:10262C0000E0012010BD0020FCE700BF002C0140A1
:10263C0038B505460C460C290DD8DFE801F0070C1F
:10264C000C0C2A0C0C0C300C0C0C36000268D368E9
:10265C0023F00203D360002221462868FFF749FFCC
:10266C002B68244A934226D02B68196A41F2111226
:10267C00114208D1196A40F24442114203D11A683E
:10268C0022F001021A602CBB012385F83E30002099
:10269C0038BD0268D36823F00403D360DBE702681B
:1026AC00D36823F00803D360D5E70268D36823F01E
:1026BC001003D360CFE7196A41F211121142D3D142
:1026CC00196A40F244421142CED15A6C22F40042B3
:1026DC005A64C9E7042C05D0082C07D0012385F8CF
:1026EC004130D4E7012385F83F30D0E7012385F84A
:1026FC004030CCE7002C014090F83C20012A2CD033
:10270C0010B40346012280F83C20022280F83D20C0
:10271C0002685068946820F0700C086840EA0C005D
:10272C0050601A680E4882420AD0B2F1804F07D02E
:10273C00A0F59430824203D000F58060824204D12F
:10274C0024F08004496821439160012283F83D20E4
:10275C00002083F83C0010BC70470220704700BF7B
:10276C00002C0140024690F83C30012B21D0012373
:10277C0080F83C30CB6823F440738868034323F41F
:10278C0080634868034323F400630868034323F41D
:10279C0080530869034323F400534869034323F42B
:1027AC008043C9690B4311684B64002082F83C00DC
:1027BC00704702207047704770470000002103E00B
:1027CC000B4B5B58435004310A480B4B42189A424E
:1027DC00F6D30A4A02E0002342F8043B084B9A4223
:1027EC00F9D3FEF75FFC00F017F8FEF795F9704788
:1027FC00902B0008000000206C0000206C000020D2
:10280C0074010020FEE703460244934200D1704756
:10281C0003F8011BF9E7000070B500260C4D0D4CB8
:10282C00641BA410A64209D100F080F900260A4DC1
:10283C000A4C641BA410A64205D170BD55F8043B8C
:10284C0098470136EEE755F8043B98470136F2E716
:10285C00882B0008882B0008882B00088C2B00087C
:10286C002DE9F047089E0D4604468E46002B4CD1B0
:10287C008A42944667D9B2FA82F353B102FA03FC46
:10288C00C3F1200201FA03FE20FA02F242EA0E0E14
:10289C009C404FEA1C47BEFBF7F11FFA8CF507FB77
:1028AC0011EE01FB05F0220C42EA0E4290420AD9CD
:1028BC001CEB020201F1FF3E80F01981904240F2C4
:1028CC00168102396244121AB2FBF7F007FB102290
:1028DC0000FB05F5A4B244EA0244A5420AD91CEB5C
:1028EC00040400F1FF3280F00481A54240F2018122
:1028FC006444023840EA01400021641B1EB1DC40F4
:10290C000023C6E90043BDE8F0878B4208D9002EAE
:10291C0000F0EA800021C6E900050846BDE8F08712
:10292C00B3FA83F1002948D1AB4202D3824200F2C0
:10293C00F880841A65EB030201209646002EE2D043
:10294C00C6E9004EDFE702B9FFDEB2FA82F3002BD4
:10295C0040F08E80881A0121170C1FFA82FEB0FB02
:10296C00F7F507FB1500220C42EA00420EFB05F0BE
:10297C00904208D91CEB020205F1FF3802D29042BA
:10298C0000F2CC804546121AB2FBF7F007FB10227E
:10299C000EFB00FEA4B244EA0244A64508D91CEB87
:1029AC00040400F1FF3202D2A64500F2B4801046B6
:1029BC00A4EB0E0440EA0540A0E7C1F120078B40D0
:1029CC0022FA07FC4CEA030C25FA07FA4FEA1C49D9
:1029DC00BAFBF9F88D4020FA07F309FB18AA1FFA85
:1029EC008CFE2B4300FA01F508FB0EF01C0C44EA9C
:1029FC000A44A04202FA01F20BD91CEB040408F1C0
:102A0C00FF3A80F08680A04240F28380A8F1020851
:102A1C006444241A98B2B4FBF9F309FB134403FB86
:102A2C000EFE40EA0444A64508D91CEB040403F14D
:102A3C00FF306AD2A64568D9023B644443EA084099
:102A4C00A0FB0293A4EB0E049C42C8469E4654D3B2
:102A5C0051D0002E67D0B5EB080364EB0E04CB40CD
:102A6C0004FA07F71F43CC40C6E9007400214AE77B
:102A7C0002FA03FCC3F12000C1409D4024FA00F08F
:102A8C004FEA1C472843B1FBF7F507FB15111FFA5A
:102A9C008CFE020C42EA014205FB0EF1914204FA53
:102AAC0003F408D91CEB020205F1FF382FD2914236
:102ABC002DD9023D6244521AB2FBF7F107FB1122E9
:102ACC0080B240EA024001FB0EF2824208D91CEBB4
:102ADC00000001F1FF3816D2824214D90239604449
:102AEC00801A41EA05413AE7314630460BE7714618
:102AFC00E9E61046FEE64D45ABD2B9EB020863EBB6
:102B0C000C0E0138A5E74146EAE7034696E7454631
:102B1C00D1E7D0467DE76444023849E7023D624480
:102B2C0031E708460AE73146EDE600BFF8B500BFCD
:102B3C00F8BC08BC9E467047F8B500BFF8BC08BC92
:042B4C009E467047EA
:102B5000FC60DAF266B6BEE0FEF60000000000009F
:102B6000000000000102030406070809020304052F
:102B7000060708090A0B0C0D0E0F101000000000CC
:082B8000ECFCFF7F01000000E6
:042B8800D10600086A
:042B8C00AD0600088A
:102B9000000C014010000000000C0140200000006B
:102BA000000C014040000000000C014080000000CB
:102BB000000C014004000000000C0140000800006F
:102BC0000010014000400000000C01400100000026
:102BD000000C014002000000000C01400004000055
:102BE00000100140002000000010014000800000A3
:0C2BF0000024F4000100000010000000B0
:04000005080027C9FF
:00000001FF
